:2000DB00AC82AD83AEF0FF78C9ECF2ED08F2EE08F2EF08F290C00075F0A8E4121535AC8268
:2000FB00AD83AEF0FFEDC403CCC40354076CCC5407CC6CCCFDEEC40354F84DFDEFC403CE13
:20011B00C40354076ECE5407CE6ECE8C828D838EF022AC82AD83AEF0FF78C9ECF2ED08F242
:20013B00EE08F2EF08F290C00075F0A8E4021535AF827807E4F27D017800E2F5F008E242D7
:20015B00F008E242F008E245F0700878077401F20201E37800C308E2940C08E2940008E2E8
:20017B009400400778077402F2805D7800C3E2F5F0E495F008E2F5F0740195F008E2F5F0C2
:20019B00E495F008E2F5F0E495F0503C7D0078C9740CF2E408F208F208F27800E2F582083C
:2001BB00E2F58308E2F5F008E2C007C005121535AA82AB83ACF0FED005D0077800EAF2EB4A
:2001DB0008F2EC08F2EE08F27807E260030202E07800E2FC08E2FEE4C39CFC74019EFEBF47
:2001FB000002800EBF01028061BF02030202BC0202E0747F558EFF8D03EB035480FB748033
:20021B005B4FF58E5389F074F75589FF7806E2C40354F8FB74085B4FF5894389027804E244
:20023B00B40105438F018003538FFE8C078F8A8F8C7805E2B4010543A802800353A8FD74F7
:20025B00DF55884410F5880202E0E589540F4420F5897804E2B40105438F028003538FFD11
:20027B008C078F8B8F8D747F5589FF7806E2035480FB74805B4FF589ED60077440458EFFA2
:20029B00800574BF558EFF8F8E7805E2B4010543A808800353A8F7747F55884440F58880BA
:2002BB00247804E2B40105438F048003538FFB8C9CED60077404458EFF800574FB558EFF15
:2002DB008F8E438E107807E2F58222AF824307207808E2B401067D087E0080047D007E00D1
:0902FB00ED4FF5C12243C11022B0
:20030400AE82AF83EE4F60197C647D02EC4D600A0000001CBCFF011D80F21EBEFF011F80DD
:13032400E322AF82EF600B7E08EE60031E80FA1F80F22214
:20033700AF827809E2601C780AE22404FC08E23400FD08E2FE8C828D838EF01215EDFC4F10
:20035700FE801A780AE22405FB08E23400FC08E2FD8B828C838DF01215EDFB5FFE8E82222E
:20037700AD82AE83AFF074032DFDE43EFE8D828E838FF01215EDFF600EBF01028009BF0379
:20039700028004C2008002D200A200E433F58222AD82AE83AFF074032DFDE43EFE8D828EFB
:2003B700838FF01215EDFF6009BF02028004C2018002D201A201E433F58222AFF0AE83E541
:2003D70082780DF2EE08F2EF08F27C00780DE22402FA08E23400FB08E2FF8A828B838FF09E
:2003F7001215EDFFEF600C8C06EE2EFE74014EFC1F80F1780DE22404F51008E23400F511C5
:2004170008E2F512780DE22401FA08E23400FB08E2FF8A828B838FF01215EDFA8AF005F036
:20043700EC800225E0D5F0FBFA8510828511838512F01215D2780DE22405FD08E23400FE1F
:2004570008E2FFEAF4FA8D828E838FF01215D2780DE2F58208E2F58308E2F5F01215EDFF0A
:2004770024FA500122EF2F2F9004837302049502050002056B0205D60206410206AC780D8A
:20049700E22403FD08E23400FE08E2FF8D828E838FF01215EDFD780974025DF2780D790A3C
:2004B700E2F308E209F308E209F3859382120337858293780DE22403FD08E23400FE08E273
:2004D700FF8D828E838FF01215EDFD780974015DF2780D790AE2F308E209F308E209F385E3
:2004F700948212033785829422780DE22403FD08E23400FE08E2FF8D828E838FF01215ED83
:20051700FD780974025DF2780D790AE2F308E209F308E209F3859182120337858291780DD7
:20053700E22403FD08E23400FE08E2FF8D828E838FF01215EDFD780974015DF2780D790A9C
:20055700E2F308E209F308E209F385928212033785829222780DE22403FD08E23400FE0894
:20057700E2FF8D828E838FF01215EDFD780974025DF2780D790AE2F308E209F308E209F3E4
:20059700859582120337858295780DE22403FD08E23400FE08E2FF8D828E838FF01215ED7D
:2005B700FD780974015DF2780D790AE2F308E209F308E209F3859682120337858296227819
:2005D7000DE22403FD08E23400FE08E2FF8D828E838FF01215EDFD780974025DF2780D79F8
:2005F7000AE2F308E209F308E209F385B1821203378582B1780DE22403FD08E23400FE08CE
:20061700E2FF8D828E838FF01215EDFD780974015DF2780D790AE2F308E209F308E209F344
:2006370085B2821203378582B222780DE22403FD08E23400FE08E2FF8D828E838FF012156D
:20065700EDFD780974025DF2780D790AE2F308E209F308E209F385B3821203378582B37872
:200677000DE22403FD08E23400FE08E2FF8D828E838FF01215EDFD780974015DF2780D7958
:200697000AE2F308E209F308E209F385B4821203378582B422780DE22403FD08E23400FE0D
:2006B70008E2FF8D828E838FF01215EDFD780974025DF2780D790AE2F308E209F308E2098E
:2006D700F385C9821203378582C9780DE22403FD08E23400FE08E2FF8D828E838FF01215CE
:2006F700EDFD780974015DF2780D790AE2F308E209F308E209F385CA821203378582CA22FB
:20071700AD82AE83AFF07C001215EDFB24FA4028EB2B90072D73800A800C800E801080129F
:200737008014AC808012AC90800EACA0800AACB08006ACC08002ACC874042DF9E43EFA8F23
:200757000389828A838BF01215ED52040DBD00010E8D828E838FF01215EDFD8DF005F0EC9B
:200777008002C313D5F0FBF58222AFF0AE83E5827811F2EE08F2EF08F27811E22402FA089B
:20079700E23400FB08E2FC8A828B838CF01215EDFABA01137810E260067B017C0080047B12
:2007B700007C007810EBF27811E22401FA08E23400FB08E2FC8A828B838CF01215EDFA8A8A
:2007D700F005F07810E2800225E0D5F0FBFA7811E22404FB08E23400FC08E2FF8B828C83C5
:2007F7008FF01215EDFB5A7810F27811E2F58208E2F58308E2F5F01215EDFF24FA500122C9
:20081700EF2F2F90081E730208300208530208760208990208BC0208DF7811E22405FD0849
:20083700E23400FE08E2FF8D828E838FF01215EDFDE58052057810E24DF580227811E2245B
:2008570005FD08E23400FE08E2FF8D828E838FF01215EDFDE59052057810E24DF590227828
:2008770011E22405FD08E23400FE08E2FF8D828E838FF01215EDFDE5A052057810E24DF50B
:20089700A0227811E22405FD08E23400FE08E2FF8D828E838FF01215EDFDE5B052057810C5
:2008B700E24DF5B0227811E22405FD08E23400FE08E2FF8D828E838FF01215EDFDE5C052EE
:2008D700057810E24DF5C0227811E22405FD08E23400FE08E2FF8D828E838FF01215EDFD28
:0B08F700E5C852057810E24DF5C8225C
:1C00A10078147413F2781504F278167412F278177442F2781804F278197441F2C0
:20090200AF82781AE275F003A424142FF9E3FFC4540FFE53070F783CEEF2783DEFF2783E74
:200922007401F2783F793BE3F27840E4F27841F290003C75F0600203D2AF827844E2FE7828
:200942001AF274BF55A2FDEE030354C0FE74405E4DF5A27E00BE02005009EE2439F8E4F2B6
:200962000E80F27842E2035480FEEF2F42067843E24EF5D9E4F5D8F5E9F5F9D2DE22AF82E5
:20098200C2DE7845793BE2F38F82C007120902D007EF2433F8E4F2EF2F25E0FE241BF9E452
:2009A200F309F309F309F3EE2423F9E4F309F309F309F3EF2435F87948E3F2EF2437F879C4
:2009C20047E3F2EF2439F87440F27846E2FEFDEDC454F0FD430540EE60067C017E00800427
:2009E2007C007E00EC4DFEBF00028005BF011280098EDAE4F5EAF5FA80078EDBE4F5EBF560
:200A0200FBE4F5E9F5F9D2DE22AF827849E22439F87442F2784DC308E29401920240067D28
:200A2200FF7E008007784DE2FD08E2FEE4C39DFD74019E5403FCC454F0FEEC2C25E0420612
:200A4200784CE2FCFBEBC454F0FB430342EC60067A017C0080047A007C00EA4BFC7849E2EA
:200A620060087849E2B40119800C8EF2EF60048CDA8DEA8DFA228EF3EF60048CDB8DEB8D76
:200A8200FB22AF827849EFF2784F794AE2F37850794BE2F37851794CE2F37852794DE2F3DC
:200AA20008E209F3758201020A0BAF827849EFF2784AE4F2784BF2784CF27854794DE2F302
:200AC20008E209F3758200020A0BAF827856793BE2F38F82C007120902D007EF2FFE242B61
:200AE200F87958E3F20809E3F2EE242FF97858E2F30908E2F3197857E2B401067D4D7E00DE
:200B020080047D497E00EF2439F8EDF2BF00028005BF011A800D8DDAE3FE09E3FF198EEA77
:200B22008FFA228DDBE3FE09E3FF8EEB8FFB22C2AFC021C0E0C0F0C082C083C0D075D008AB
:200B42007D00785AE4F2785B7402F210DF02800F7833E2047833F27834E2FC047834F21049
:200B6200D802804D785BE4F27839E2FCBC4002800ABC4902801CBC4D388017ADEA785AE543
:200B8200FAF27837E2FCBC012875DA007839E4F2801F782FE2FB08E2FC782BE2FA08E2FEAF
:200BA200EA2BFBEE3CFC782FEBF208ECF28BEA8CFA10D902804E785B7401F2783AE2FCBC59
:200BC2004002800ABC4902801CBC4D388017ADEB785AE5FBF27838E2FCBC012875DB007855
:200BE2003AE4F2801F7831E2FB08E2FC782DE2FA08E2FEEA2BFBEE3CFC7831EBF208ECF2CD
:200C02008BEB8CFB785BE2B402004003020D1A785BE22439F9E3FCBC4002800FBC42030284
:200C22000D0CBC4903020D0C020D1A785BE225E025E0FC241BF9EC2423F8E2FA08E2FB0866
:200C4200E2FE08E2FFEAF309EBF309EEF309EFF3191919EC2423F8EDF2E804FFC008A80F71
:200C6200C009795AE3F2D008D009740228FFC008785BE22433FEA80EE2A80FF2D0080808B8
:200C820008E4F2EC2423F8E2F51308E2F51408E2F51508E2F516E3FA09E3FD09E3FE09E3E7
:200CA200FFE513C39AFAE5149DFDE5159EFEE5169FFF785BE22435F9E3FC8CF005F0800D3E
:200CC200C3EF13FFEE13FEED13FDEA13FAD5F0F0785CEAF208EDF208EEF208EFF2785EE286
:200CE20060067EFF7FFF8011785CE2FA08E2FB08E2FC08E2FD8A0E8B0F78C7EEF2EF08F264
:200D0200785BE2F5821213EB800E78C7E4F208F2785BE2F5821213EBD0D0D083D082D0F0B7
:070D2200D0E0D021D2AF3276
:200D2900AF827860EFF2786179B4E2F308E209F308E209F308E209F378B87401F278B9E487
:200D4900F2786579BAE2F38F82020E43AE82AF8378BBEEF27860E2F582C007C006121130C9
:200D6900E582D006D0077010900001C007C006120304D006D00780D88E828F83227860E29C
:110D8900F582121100E582FE60F37F008E828F832244
:200D9A00AF827C007D007E00BF01028005BF021080087C667D007E6080067C8D7D007E60CA
:200DBA008C828D838EF022AF827C007D007E00BF01028005BF021080087C797D007E608043
:200DDA00067CA07D007E608C828D838EF022AF827E00BF01028005BF020C8006788CE2FE91
:200DFA00800478B3E2FE8E8222120D9A12120AAF82E4BF000104F58222120D9A12120AAF29
:200E1A0082E4BF100104F58222120DC112120AAF82E4BF000104F58222120DC112120AAFA8
:200E3A0082E4BF100104F58222AF827E00BF010578B9E2705178B8E270057C02FD80048F68
:200E5A00047D00C00778B4E2F58208E2F58308E2F5F008E2C0041200DBAA82AB83ADF0FFE9
:200E7A00D0047800EAF2EB08F2ED08F2EF08F27804E4F27805F27806F28C82C00712014B17
:200E9A00AE82D007D007EE6003020FE18F82C007C006120D9A1211CCD006D0078F82C0074C
:200EBA00C006120DC11211CCD006D0077D0078B9C3E2F5F0740395F0403978B9E275F003AE
:200EDA00A4900EDF73020EEB020EF2020EF2020EF2BF011F7D01801BBF011678B4E2FB0884
:200EFA00E2530302E4C313CB13CBFC74024BFD80027D0178B9E2B403067B207C0080047B9B
:200F1A00007C00ED30E1087517807518008005E4F517F518E5174B4410FCBF01028009BF79
:200F3A000203020FC1020FE1BD0102800ABD02028014BD0355803278B8E27005438E01808F
:200F5A0049538EFE804478B4E25401701208E25400700C08E25400700608E2540060054352
:200F7A008780802653877F802178B4E25401701208E25400700C08E25400700608E254001F
:200F9A006005438E208003538EDF78B9E2788CF2ED30E0067D407F0080047D007F00ED4C9D
:200FBA00F59843A810802078B9E278B3F274EF55A2FF78BAE2C454F0FD74105D4FF5A27412
:200FDA00404CF59A43AF018E8222C2AFC021C0E0C0F0C082C083C007C006C005C004C003B7
:200FFA00C002C001C000C0D075D008E59830E12E5398FD90007975F06075D00012120A755D
:20101A00D008E582601490007975F06075D00012132E75D0088582998004788BE4F2E598D6
:20103A0030E0165398FEC09990006675F06075D00012126375D0081581D0D0D000D001D0B3
:20105A0002D003D004D005D006D007D083D082D0F0D0E0D021D2AF32C2AFC021C0E0C0F0F0
:20107A00C082C083C007C006C005C004C003C002C001C000C0D075D008E59A30E12E539A2D
:20109A00FD9000A075F06075D00012120A75D008E58260149000A075F06075D00012132E1C
:2010BA0075D00885829B800478B2E4F2E59A30E016539AFEC09B90008D75F06075D000127F
:2010DA00126375D0081581D0D0D000D001D002D003D004D005D006D007D083D082D0F0D02D
:2010FA00E0D021D2AF327F00C007120D9AAC82AD83AEF0C006C005C00412120AE582D0049F
:20111A00D005D006D007600B8C828D838EF012132EAF828F8222E58278BCF278BCE2F5825B
:20113A00120DC1AC82AD83AEF0C006C005C00478BBE2C0E08C828D838EF012126378BDE578
:20115A0082F21581D004D005D0068C828D838EF0C006C005C00412120AE582D004D005D0F3
:20117A0006604974122CFAE43DFB8E078A828B838FF01215ED70358A828B838FF0740112D7
:20119A0015D278BCE2B40102800878BCE2B4021C800E8C828D838EF012132E858299800C68
:1211BA008C828D838EF012132E85829B78BDE2F58222E2
:2011CC00AD82AE83AFF074102DFAE43EFB8F048A828B838CF074101215D2042DFAE43EFB4E
:2011EC008F048A828B838CF074101215D274122DFDE43EFE8D828E838FF0E40215D2AD82D2
:20120C00AE83AFF074112DFAE43EFB8F048A828B838CF01215EDFC74102DFDE43EFE8D8213
:20122C008E838FF01215EDFFC3EC9F92084016BC10067D007E00801CECC39FFB0BEBFD33E9
:20124C0095E0FE800FEFC39CFC14D39410F4FFFD3395E0FE8D8222C019858119C082C08367
:20126C00C0F00581058105817C00A8190886820886830886F0C00412120AAB82D004BB1086
:20128C00004003021326A81908741126FAE40836FB0886078A828B838FF01215EDFE0E8A61
:2012AC00828B838FF0EE1215D2BE1000400A8A828B838FF0E41215D2A81908E5192404F9B6
:2012CC00741026F7E4083609F708E609F7E5192404F886820886830886F01215EDFEBE10BC
:2012EC0011E5192404F886820886830886F0E41215D28A828B838FF01215EDFAA81908EAE5
:20130C0026FAE40836FF0886068A828F838EF0E51924FDF8E61215D27C018C82851981D0E0
:20132C001922C019858119C082C083C0F00581058105817C00A81908E5192404F974102699
:20134C00F7E4083609F708E609F7E5192404F886820886830886F01215EDFBBB10030213D3
:20136C00E3A81908EB26FAE40836FE0886078A828E838FF01215EDFCA81908741126FDE4F4
:20138C000836FE0886078D828E838FF01215EDFAEBB5021DE5192404F8868208868308863F
:2013AC00F074101215D28D828E838FF01215D280260BE5192404F886820886830886F0EBCB
:1F13CC001215D2BB1011E5192404F886820886830886F0E41215D28C82851981D0192263
:04000000020049327F
:01000B0032C2
:0100130032BA
:01001B0032B2
:03002300020FE4E5
:01002B0032A2
:01003300329A
:03003B00020B3184
:0300430002107236
:1E00BD0078BE7403F278BFF278C07401F278C1E4F278C4F278C5F278C604F2020046D6
:030046000214861B
:2013EB002278C5E2FEE23395E0FFEE240DF582EF3416F583E493FF7E0074FFC39FFFE49E89
:20140B00FE7854EFF2EE08F2758200120AAC78C579C6E3C5F0E225F0FF20E708C3EF6480C0
:20142B009494400878C6E2D3F43400F278C579C6E3C5F0E225F0F222758201121100E58283
:20144B00FE601EBE0A0F78BB740DF2758201C006121130D00678BBEEF275820112113080C3
:20146B00D722AE82AF83C007C0061213EC121443D006D0078E828F830203047861E4F27404
:20148B00E108F2E408F208F27865F2758201120D299000BE75F0601203D2906400E4F5F0C8
:2014AB0012012DAC82AD83AEF0FF7800ECF2ED08F2EE08F2EF08F27804E4F27805F2780699
:2014CB00F275820012014B7842E4F27843F27844F275820212093B90160DE493FF7E007465
:2014EB00FFC39FFFE49EFE7852EFF2EE08F2784FE4F27850F27851F2758200120A84D2AF44
:20150B0078C47910E2F39000BE75F06012078178C4E2B40100920378C4E433F290007D12AD
:0A152B00146D90007D12146D80D63F
:14160D00010305070A0F141B222C3643516172869DB5D0EDF1
:200056007900E94400601A7A0043A20190162115A29000D2E405A293A315A2F0A3D9F5DA77
:01007600F396
:20153500AF82AE83ADF0FC78CDEFF2EE08F2ED08F2EC08F27A007B007E007F007D2078D0E9
:20155500E2235401FC78CDE225E0F208E233F208E233F208E233F2EA2AFAEB33FBEE33FE8F
:20157500EF33FFEC600343020178C9C3E2F5F0EA95F008E2F5F0EB95F008E2F5F0EE95F0E5
:2015950008E2F5F0EF95F0402278C9D3E29AF4B3FAB308E29BF4B3FBB308E29EF4B3FEB3F3
:1D15B50008E29FF4FF78CDE24401F2DD9178CDE2F58208E2F58308E2F5F008E222F6
:06007700E478FFF6D8FD5D
:1B15D20020F71130F6138883A88220F509F6A8837583002280FEF280F5F02218
:20007D0078D2E84400600A790075A000E4F309D8FC7800E84400600C79009000D2E4F0A3DF
:04009D00D8FCD9FAB8
:0D004900758121121609E582600302004650
:1C15ED0020F71430F6148883A88220F507E6A88375830022E280F7E49322E0220D
:0416090075820022C4
:00000001FF
